{
  "address": "0x3F26504262d25dd25074Ae222709f4259a36272C",
  "abi": [
    {
      "inputs": [
        {
          "internalType": "address",
          "name": "initialOwner",
          "type": "address"
        }
      ],
      "stateMutability": "nonpayable",
      "type": "constructor"
    },
    {
      "inputs": [
        {
          "internalType": "address",
          "name": "spender",
          "type": "address"
        },
        {
          "internalType": "uint256",
          "name": "allowance",
          "type": "uint256"
        },
        {
          "internalType": "uint256",
          "name": "needed",
          "type": "uint256"
        }
      ],
      "name": "ERC20InsufficientAllowance",
      "type": "error"
    },
    {
      "inputs": [
        {
          "internalType": "address",
          "name": "sender",
          "type": "address"
        },
        {
          "internalType": "uint256",
          "name": "balance",
          "type": "uint256"
        },
        {
          "internalType": "uint256",
          "name": "needed",
          "type": "uint256"
        }
      ],
      "name": "ERC20InsufficientBalance",
      "type": "error"
    },
    {
      "inputs": [
        {
          "internalType": "address",
          "name": "approver",
          "type": "address"
        }
      ],
      "name": "ERC20InvalidApprover",
      "type": "error"
    },
    {
      "inputs": [
        {
          "internalType": "address",
          "name": "receiver",
          "type": "address"
        }
      ],
      "name": "ERC20InvalidReceiver",
      "type": "error"
    },
    {
      "inputs": [
        {
          "internalType": "address",
          "name": "sender",
          "type": "address"
        }
      ],
      "name": "ERC20InvalidSender",
      "type": "error"
    },
    {
      "inputs": [
        {
          "internalType": "address",
          "name": "spender",
          "type": "address"
        }
      ],
      "name": "ERC20InvalidSpender",
      "type": "error"
    },
    {
      "inputs": [
        {
          "internalType": "address",
          "name": "owner",
          "type": "address"
        }
      ],
      "name": "OwnableInvalidOwner",
      "type": "error"
    },
    {
      "inputs": [
        {
          "internalType": "address",
          "name": "account",
          "type": "address"
        }
      ],
      "name": "OwnableUnauthorizedAccount",
      "type": "error"
    },
    {
      "anonymous": false,
      "inputs": [
        {
          "indexed": true,
          "internalType": "address",
          "name": "owner",
          "type": "address"
        },
        {
          "indexed": true,
          "internalType": "address",
          "name": "spender",
          "type": "address"
        },
        {
          "indexed": false,
          "internalType": "uint256",
          "name": "value",
          "type": "uint256"
        }
      ],
      "name": "Approval",
      "type": "event"
    },
    {
      "anonymous": false,
      "inputs": [
        {
          "indexed": true,
          "internalType": "address",
          "name": "sender",
          "type": "address"
        },
        {
          "indexed": false,
          "internalType": "uint256",
          "name": "amount",
          "type": "uint256"
        },
        {
          "indexed": false,
          "internalType": "string",
          "name": "eventType",
          "type": "string"
        },
        {
          "indexed": false,
          "internalType": "uint256",
          "name": "totalSupply",
          "type": "uint256"
        }
      ],
      "name": "EnergyTokenEvent",
      "type": "event"
    },
    {
      "anonymous": false,
      "inputs": [
        {
          "indexed": true,
          "internalType": "address",
          "name": "previousOwner",
          "type": "address"
        },
        {
          "indexed": true,
          "internalType": "address",
          "name": "newOwner",
          "type": "address"
        }
      ],
      "name": "OwnershipTransferred",
      "type": "event"
    },
    {
      "anonymous": false,
      "inputs": [
        {
          "indexed": true,
          "internalType": "address",
          "name": "from",
          "type": "address"
        },
        {
          "indexed": true,
          "internalType": "address",
          "name": "to",
          "type": "address"
        },
        {
          "indexed": false,
          "internalType": "uint256",
          "name": "value",
          "type": "uint256"
        }
      ],
      "name": "Transfer",
      "type": "event"
    },
    {
      "inputs": [],
      "name": "_totalSupply",
      "outputs": [
        {
          "internalType": "uint256",
          "name": "",
          "type": "uint256"
        }
      ],
      "stateMutability": "view",
      "type": "function"
    },
    {
      "inputs": [
        {
          "internalType": "address",
          "name": "owner",
          "type": "address"
        },
        {
          "internalType": "address",
          "name": "spender",
          "type": "address"
        }
      ],
      "name": "allowance",
      "outputs": [
        {
          "internalType": "uint256",
          "name": "",
          "type": "uint256"
        }
      ],
      "stateMutability": "view",
      "type": "function"
    },
    {
      "inputs": [
        {
          "internalType": "address",
          "name": "spender",
          "type": "address"
        },
        {
          "internalType": "uint256",
          "name": "value",
          "type": "uint256"
        }
      ],
      "name": "approve",
      "outputs": [
        {
          "internalType": "bool",
          "name": "",
          "type": "bool"
        }
      ],
      "stateMutability": "nonpayable",
      "type": "function"
    },
    {
      "inputs": [],
      "name": "averageDailyProduction",
      "outputs": [
        {
          "internalType": "uint256",
          "name": "",
          "type": "uint256"
        }
      ],
      "stateMutability": "view",
      "type": "function"
    },
    {
      "inputs": [
        {
          "internalType": "address",
          "name": "account",
          "type": "address"
        }
      ],
      "name": "balanceOf",
      "outputs": [
        {
          "internalType": "uint256",
          "name": "",
          "type": "uint256"
        }
      ],
      "stateMutability": "view",
      "type": "function"
    },
    {
      "inputs": [
        {
          "internalType": "uint256",
          "name": "amount",
          "type": "uint256"
        }
      ],
      "name": "burnEnergyTokens",
      "outputs": [],
      "stateMutability": "nonpayable",
      "type": "function"
    },
    {
      "inputs": [],
      "name": "conversionRate",
      "outputs": [
        {
          "internalType": "uint256",
          "name": "",
          "type": "uint256"
        }
      ],
      "stateMutability": "view",
      "type": "function"
    },
    {
      "inputs": [],
      "name": "decimals",
      "outputs": [
        {
          "internalType": "uint8",
          "name": "",
          "type": "uint8"
        }
      ],
      "stateMutability": "view",
      "type": "function"
    },
    {
      "inputs": [
        {
          "internalType": "address",
          "name": "producer",
          "type": "address"
        }
      ],
      "name": "getRemainingDailyTokens",
      "outputs": [
        {
          "internalType": "uint256",
          "name": "",
          "type": "uint256"
        }
      ],
      "stateMutability": "view",
      "type": "function"
    },
    {
      "inputs": [
        {
          "internalType": "address",
          "name": "producer",
          "type": "address"
        }
      ],
      "name": "mintEnergyTokens",
      "outputs": [],
      "stateMutability": "nonpayable",
      "type": "function"
    },
    {
      "inputs": [
        {
          "internalType": "address",
          "name": "",
          "type": "address"
        }
      ],
      "name": "minters",
      "outputs": [
        {
          "internalType": "bool",
          "name": "",
          "type": "bool"
        }
      ],
      "stateMutability": "view",
      "type": "function"
    },
    {
      "inputs": [],
      "name": "name",
      "outputs": [
        {
          "internalType": "string",
          "name": "",
          "type": "string"
        }
      ],
      "stateMutability": "view",
      "type": "function"
    },
    {
      "inputs": [],
      "name": "owner",
      "outputs": [
        {
          "internalType": "address",
          "name": "",
          "type": "address"
        }
      ],
      "stateMutability": "view",
      "type": "function"
    },
    {
      "inputs": [],
      "name": "renounceOwnership",
      "outputs": [],
      "stateMutability": "nonpayable",
      "type": "function"
    },
    {
      "inputs": [
        {
          "internalType": "address",
          "name": "account",
          "type": "address"
        },
        {
          "internalType": "bool",
          "name": "status",
          "type": "bool"
        }
      ],
      "name": "setMinter",
      "outputs": [],
      "stateMutability": "nonpayable",
      "type": "function"
    },
    {
      "inputs": [],
      "name": "symbol",
      "outputs": [
        {
          "internalType": "string",
          "name": "",
          "type": "string"
        }
      ],
      "stateMutability": "view",
      "type": "function"
    },
    {
      "inputs": [],
      "name": "totalSupply",
      "outputs": [
        {
          "internalType": "uint256",
          "name": "",
          "type": "uint256"
        }
      ],
      "stateMutability": "view",
      "type": "function"
    },
    {
      "inputs": [
        {
          "internalType": "address",
          "name": "to",
          "type": "address"
        },
        {
          "internalType": "uint256",
          "name": "value",
          "type": "uint256"
        }
      ],
      "name": "transfer",
      "outputs": [
        {
          "internalType": "bool",
          "name": "",
          "type": "bool"
        }
      ],
      "stateMutability": "nonpayable",
      "type": "function"
    },
    {
      "inputs": [
        {
          "internalType": "address",
          "name": "from",
          "type": "address"
        },
        {
          "internalType": "address",
          "name": "to",
          "type": "address"
        },
        {
          "internalType": "uint256",
          "name": "value",
          "type": "uint256"
        }
      ],
      "name": "transferFrom",
      "outputs": [
        {
          "internalType": "bool",
          "name": "",
          "type": "bool"
        }
      ],
      "stateMutability": "nonpayable",
      "type": "function"
    },
    {
      "inputs": [
        {
          "internalType": "address",
          "name": "newOwner",
          "type": "address"
        }
      ],
      "name": "transferOwnership",
      "outputs": [],
      "stateMutability": "nonpayable",
      "type": "function"
    },
    {
      "inputs": [
        {
          "internalType": "address",
          "name": "",
          "type": "address"
        }
      ],
      "name": "userMintTimestamps",
      "outputs": [
        {
          "internalType": "uint256",
          "name": "",
          "type": "uint256"
        }
      ],
      "stateMutability": "view",
      "type": "function"
    },
    {
      "inputs": [
        {
          "internalType": "address",
          "name": "",
          "type": "address"
        }
      ],
      "name": "userMintedTokensToday",
      "outputs": [
        {
          "internalType": "uint256",
          "name": "",
          "type": "uint256"
        }
      ],
      "stateMutability": "view",
      "type": "function"
    }
  ],
  "transactionHash": "0x403b2d483def8299d1b5486d023700a352b275a5e2be025d8e9c1f8ad95489fc",
  "args": [
    "0x60E1229dD08be81DdC24AB40E2BcaBe78F419ed6"
  ],
  "numDeployments": 2,
  "solcInputHash": "47c7d672c81a18dcbee05638f5f6aecb",
  "bytecode": "0x60c060405260016080908152506200001c6200020560201b60201c565b600a6200002a91906200072b565b60186200003891906200077c565b60a0908152503480156200004b57600080fd5b50604051620029a4380380620029a4833981810160405281019062000071919062000831565b806040518060400160405280600c81526020017f456e6572677920546f6b656e00000000000000000000000000000000000000008152506040518060400160405280600381526020017f45544b00000000000000000000000000000000000000000000000000000000008152508160039081620000ef919062000ad3565b50806004908162000101919062000ad3565b505050600073ffffffffffffffffffffffffffffffffffffffff168173ffffffffffffffffffffffffffffffffffffffff1603620001795760006040517f1e4fbdf700000000000000000000000000000000000000000000000000000000815260040162000170919062000bcb565b60405180910390fd5b6200018a816200020e60201b60201c565b50620001ca33620001a06200020560201b60201c565b600a620001ae91906200072b565b62989680620001be91906200077c565b620002d460201b60201c565b620001da6200020560201b60201c565b600a620001e891906200072b565b62989680620001f891906200077c565b6009819055505062000c8e565b60006012905090565b6000600560009054906101000a900473ffffffffffffffffffffffffffffffffffffffff16905081600560006101000a81548173ffffffffffffffffffffffffffffffffffffffff021916908373ffffffffffffffffffffffffffffffffffffffff1602179055508173ffffffffffffffffffffffffffffffffffffffff168173ffffffffffffffffffffffffffffffffffffffff167f8be0079c531659141344cd1fd0a4f28419497f9722a3daafe3b4186f6b6457e060405160405180910390a35050565b600073ffffffffffffffffffffffffffffffffffffffff168273ffffffffffffffffffffffffffffffffffffffff1603620003495760006040517fec442f0500000000000000000000000000000000000000000000000000000000815260040162000340919062000bcb565b60405180910390fd5b6200035d600083836200036160201b60201c565b5050565b600073ffffffffffffffffffffffffffffffffffffffff168373ffffffffffffffffffffffffffffffffffffffff1603620003b7578060026000828254620003aa919062000be8565b925050819055506200048d565b60008060008573ffffffffffffffffffffffffffffffffffffffff1673ffffffffffffffffffffffffffffffffffffffff1681526020019081526020016000205490508181101562000446578381836040517fe450d38c0000000000000000000000000000000000000000000000000000000081526004016200043d9392919062000c34565b60405180910390fd5b8181036000808673ffffffffffffffffffffffffffffffffffffffff1673ffffffffffffffffffffffffffffffffffffffff16815260200190815260200160002081905550505b600073ffffffffffffffffffffffffffffffffffffffff168273ffffffffffffffffffffffffffffffffffffffff1603620004d8578060026000828254039250508190555062000525565b806000808473ffffffffffffffffffffffffffffffffffffffff1673ffffffffffffffffffffffffffffffffffffffff168152602001908152602001600020600082825401925050819055505b8173ffffffffffffffffffffffffffffffffffffffff168373ffffffffffffffffffffffffffffffffffffffff167fddf252ad1be2c89b69c2b068fc378daa952ba7f163c4a11628f55a4df523b3ef8360405162000584919062000c71565b60405180910390a3505050565b7f4e487b7100000000000000000000000000000000000000000000000000000000600052601160045260246000fd5b60008160011c9050919050565b6000808291508390505b60018511156200061f57808604811115620005f757620005f662000591565b5b6001851615620006075780820291505b80810290506200061785620005c0565b9450620005d7565b94509492505050565b6000826200063a57600190506200070d565b816200064a57600090506200070d565b81600181146200066357600281146200066e57620006a4565b60019150506200070d565b60ff84111562000683576200068262000591565b5b8360020a9150848211156200069d576200069c62000591565b5b506200070d565b5060208310610133831016604e8410600b8410161715620006de5782820a905083811115620006d857620006d762000591565b5b6200070d565b620006ed8484846001620005cd565b9250905081840481111562000707576200070662000591565b5b81810290505b9392505050565b6000819050919050565b600060ff82169050919050565b6000620007388262000714565b915062000745836200071e565b9250620007747fffffffffffffffffffffffffffffffffffffffffffffffffffffffffffffffff848462000628565b905092915050565b6000620007898262000714565b9150620007968362000714565b9250828202620007a68162000714565b91508282048414831517620007c057620007bf62000591565b5b5092915050565b600080fd5b600073ffffffffffffffffffffffffffffffffffffffff82169050919050565b6000620007f982620007cc565b9050919050565b6200080b81620007ec565b81146200081757600080fd5b50565b6000815190506200082b8162000800565b92915050565b6000602082840312156200084a5762000849620007c7565b5b60006200085a848285016200081a565b91505092915050565b600081519050919050565b7f4e487b7100000000000000000000000000000000000000000000000000000000600052604160045260246000fd5b7f4e487b7100000000000000000000000000000000000000000000000000000000600052602260045260246000fd5b60006002820490506001821680620008e557607f821691505b602082108103620008fb57620008fa6200089d565b5b50919050565b60008190508160005260206000209050919050565b60006020601f8301049050919050565b600082821b905092915050565b600060088302620009657fffffffffffffffffffffffffffffffffffffffffffffffffffffffffffffffff8262000926565b62000971868362000926565b95508019841693508086168417925050509392505050565b6000819050919050565b6000620009b4620009ae620009a88462000714565b62000989565b62000714565b9050919050565b6000819050919050565b620009d08362000993565b620009e8620009df82620009bb565b84845462000933565b825550505050565b600090565b620009ff620009f0565b62000a0c818484620009c5565b505050565b5b8181101562000a345762000a28600082620009f5565b60018101905062000a12565b5050565b601f82111562000a835762000a4d8162000901565b62000a588462000916565b8101602085101562000a68578190505b62000a8062000a778562000916565b83018262000a11565b50505b505050565b600082821c905092915050565b600062000aa86000198460080262000a88565b1980831691505092915050565b600062000ac3838362000a95565b9150826002028217905092915050565b62000ade8262000863565b67ffffffffffffffff81111562000afa5762000af96200086e565b5b62000b068254620008cc565b62000b1382828562000a38565b600060209050601f83116001811462000b4b576000841562000b36578287015190505b62000b42858262000ab5565b86555062000bb2565b601f19841662000b5b8662000901565b60005b8281101562000b855784890151825560018201915060208501945060208101905062000b5e565b8683101562000ba5578489015162000ba1601f89168262000a95565b8355505b6001600288020188555050505b505050505050565b62000bc581620007ec565b82525050565b600060208201905062000be2600083018462000bba565b92915050565b600062000bf58262000714565b915062000c028362000714565b925082820190508082111562000c1d5762000c1c62000591565b5b92915050565b62000c2e8162000714565b82525050565b600060608201905062000c4b600083018662000bba565b62000c5a602083018562000c23565b62000c69604083018462000c23565b949350505050565b600060208201905062000c88600083018462000c23565b92915050565b60805160a051611cc662000cde6000396000818161053b015281816107ea015281816108860152610a4701526000818161051a015281816107c90152818161086501526109440152611cc66000f3fe608060405234801561001057600080fd5b50600436106101425760003560e01c80637ffdf53e116100b8578063cf08c8611161007c578063cf08c8611461037d578063cf456ae714610399578063dd62ed3e146103b5578063e874d26f146103e5578063f2fde38b14610415578063f46eccc41461043157610142565b80637ffdf53e146102d55780638da5cb5b146102f357806395d89b4114610311578063a9059cbb1461032f578063b7c0d3161461035f57610142565b8063313ce5671161010a578063313ce567146101ff5780633bc6c5581461021d5780633eaaf86b1461024d57806370a082311461026b578063715018a61461029b5780637e60a90b146102a557610142565b806306fdde0314610147578063095ea7b31461016557806314d0671a1461019557806318160ddd146101b157806323b872dd146101cf575b600080fd5b61014f610461565b60405161015c919061154b565b60405180910390f35b61017f600480360381019061017a9190611606565b6104f3565b60405161018c9190611661565b60405180910390f35b6101af60048036038101906101aa919061167c565b610516565b005b6101b9610726565b6040516101c691906116b8565b60405180910390f35b6101e960048036038101906101e491906116d3565b610730565b6040516101f69190611661565b60405180910390f35b61020761075f565b6040516102149190611742565b60405180910390f35b6102376004803603810190610232919061167c565b610768565b60405161024491906116b8565b60405180910390f35b6102556108c8565b60405161026291906116b8565b60405180910390f35b6102856004803603810190610280919061167c565b6108ce565b60405161029291906116b8565b60405180910390f35b6102a3610916565b005b6102bf60048036038101906102ba919061167c565b61092a565b6040516102cc91906116b8565b60405180910390f35b6102dd610942565b6040516102ea91906116b8565b60405180910390f35b6102fb610966565b604051610308919061176c565b60405180910390f35b610319610990565b604051610326919061154b565b60405180910390f35b61034960048036038101906103449190611606565b610a22565b6040516103569190611661565b60405180910390f35b610367610a45565b60405161037491906116b8565b60405180910390f35b61039760048036038101906103929190611787565b610a69565b005b6103b360048036038101906103ae91906117e0565b610b2c565b005b6103cf60048036038101906103ca9190611820565b610b87565b6040516103dc91906116b8565b60405180910390f35b6103ff60048036038101906103fa919061167c565b610c0e565b60405161040c91906116b8565b60405180910390f35b61042f600480360381019061042a919061167c565b610c26565b005b61044b6004803603810190610446919061167c565b610cac565b6040516104589190611661565b60405180910390f35b6060600380546104709061188f565b80601f016020809104026020016040519081016040528092919081815260200182805461049c9061188f565b80156104e95780601f106104be576101008083540402835291602001916104e9565b820191906000526020600020905b8154815290600101906020018083116104cc57829003601f168201915b5050505050905090565b6000806104fe610ccc565b905061050b818585610cd4565b600191505092915050565b60007f00000000000000000000000000000000000000000000000000000000000000007f000000000000000000000000000000000000000000000000000000000000000061056491906118ef565b90506000816009546105769190611931565b90508060098190555061058883610768565b8211156105ca576040517f08c379a00000000000000000000000000000000000000000000000000000000081526004016105c1906119b1565b60405180910390fd5b600660003373ffffffffffffffffffffffffffffffffffffffff1673ffffffffffffffffffffffffffffffffffffffff16815260200190815260200160002060009054906101000a900460ff16610656576040517f08c379a000000000000000000000000000000000000000000000000000000000815260040161064d90611a1d565b60405180910390fd5b600073ffffffffffffffffffffffffffffffffffffffff168373ffffffffffffffffffffffffffffffffffffffff16036106c5576040517f08c379a00000000000000000000000000000000000000000000000000000000081526004016106bc90611a89565b60405180910390fd5b6106cf8383610ce6565b8273ffffffffffffffffffffffffffffffffffffffff167fd9d7ab7dc514d17f9dedeac4d1c541fbedf11744e81bdcc7e4cd5fda2662418783600954604051610719929190611af5565b60405180910390a2505050565b6000600254905090565b60008061073b610ccc565b9050610748858285610d68565b610753858585610dfc565b60019150509392505050565b60006012905090565b600080600760008473ffffffffffffffffffffffffffffffffffffffff1673ffffffffffffffffffffffffffffffffffffffff168152602001908152602001600020549050600081426107bb9190611b31565b905062015180811061081c577f00000000000000000000000000000000000000000000000000000000000000007f000000000000000000000000000000000000000000000000000000000000000061081391906118ef565b925050506108c3565b6000600860008673ffffffffffffffffffffffffffffffffffffffff1673ffffffffffffffffffffffffffffffffffffffff1681526020019081526020016000205490506000817f00000000000000000000000000000000000000000000000000000000000000007f00000000000000000000000000000000000000000000000000000000000000006108af91906118ef565b6108b99190611b31565b9050809450505050505b919050565b60095481565b60008060008373ffffffffffffffffffffffffffffffffffffffff1673ffffffffffffffffffffffffffffffffffffffff168152602001908152602001600020549050919050565b61091e610ef0565b6109286000610f77565b565b60086020528060005260406000206000915090505481565b7f000000000000000000000000000000000000000000000000000000000000000081565b6000600560009054906101000a900473ffffffffffffffffffffffffffffffffffffffff16905090565b60606004805461099f9061188f565b80601f01602080910402602001604051908101604052809291908181526020018280546109cb9061188f565b8015610a185780601f106109ed57610100808354040283529160200191610a18565b820191906000526020600020905b8154815290600101906020018083116109fb57829003601f168201915b5050505050905090565b600080610a2d610ccc565b9050610a3a818585610dfc565b600191505092915050565b7f000000000000000000000000000000000000000000000000000000000000000081565b80610a73336108ce565b1015610ab4576040517f08c379a0000000000000000000000000000000000000000000000000000000008152600401610aab90611bb1565b60405180910390fd5b610abe338261103d565b8060096000828254610ad09190611b31565b925050819055503373ffffffffffffffffffffffffffffffffffffffff167fd9d7ab7dc514d17f9dedeac4d1c541fbedf11744e81bdcc7e4cd5fda2662418782600954604051610b21929190611c1d565b60405180910390a250565b80600660008473ffffffffffffffffffffffffffffffffffffffff1673ffffffffffffffffffffffffffffffffffffffff16815260200190815260200160002060006101000a81548160ff0219169083151502179055505050565b6000600160008473ffffffffffffffffffffffffffffffffffffffff1673ffffffffffffffffffffffffffffffffffffffff16815260200190815260200160002060008373ffffffffffffffffffffffffffffffffffffffff1673ffffffffffffffffffffffffffffffffffffffff16815260200190815260200160002054905092915050565b60076020528060005260406000206000915090505481565b610c2e610ef0565b600073ffffffffffffffffffffffffffffffffffffffff168173ffffffffffffffffffffffffffffffffffffffff1603610ca05760006040517f1e4fbdf7000000000000000000000000000000000000000000000000000000008152600401610c97919061176c565b60405180910390fd5b610ca981610f77565b50565b60066020528060005260406000206000915054906101000a900460ff1681565b600033905090565b610ce183838360016110bf565b505050565b600073ffffffffffffffffffffffffffffffffffffffff168273ffffffffffffffffffffffffffffffffffffffff1603610d585760006040517fec442f05000000000000000000000000000000000000000000000000000000008152600401610d4f919061176c565b60405180910390fd5b610d6460008383611296565b5050565b6000610d748484610b87565b90507fffffffffffffffffffffffffffffffffffffffffffffffffffffffffffffffff8114610df65781811015610de6578281836040517ffb8f41b2000000000000000000000000000000000000000000000000000000008152600401610ddd93929190611c59565b60405180910390fd5b610df5848484840360006110bf565b5b50505050565b600073ffffffffffffffffffffffffffffffffffffffff168373ffffffffffffffffffffffffffffffffffffffff1603610e6e5760006040517f96c6fd1e000000000000000000000000000000000000000000000000000000008152600401610e65919061176c565b60405180910390fd5b600073ffffffffffffffffffffffffffffffffffffffff168273ffffffffffffffffffffffffffffffffffffffff1603610ee05760006040517fec442f05000000000000000000000000000000000000000000000000000000008152600401610ed7919061176c565b60405180910390fd5b610eeb838383611296565b505050565b610ef8610ccc565b73ffffffffffffffffffffffffffffffffffffffff16610f16610966565b73ffffffffffffffffffffffffffffffffffffffff1614610f7557610f39610ccc565b6040517f118cdaa7000000000000000000000000000000000000000000000000000000008152600401610f6c919061176c565b60405180910390fd5b565b6000600560009054906101000a900473ffffffffffffffffffffffffffffffffffffffff16905081600560006101000a81548173ffffffffffffffffffffffffffffffffffffffff021916908373ffffffffffffffffffffffffffffffffffffffff1602179055508173ffffffffffffffffffffffffffffffffffffffff168173ffffffffffffffffffffffffffffffffffffffff167f8be0079c531659141344cd1fd0a4f28419497f9722a3daafe3b4186f6b6457e060405160405180910390a35050565b600073ffffffffffffffffffffffffffffffffffffffff168273ffffffffffffffffffffffffffffffffffffffff16036110af5760006040517f96c6fd1e0000000000000000000000000000000000000000000000000000000081526004016110a6919061176c565b60405180910390fd5b6110bb82600083611296565b5050565b600073ffffffffffffffffffffffffffffffffffffffff168473ffffffffffffffffffffffffffffffffffffffff16036111315760006040517fe602df05000000000000000000000000000000000000000000000000000000008152600401611128919061176c565b60405180910390fd5b600073ffffffffffffffffffffffffffffffffffffffff168373ffffffffffffffffffffffffffffffffffffffff16036111a35760006040517f94280d6200000000000000000000000000000000000000000000000000000000815260040161119a919061176c565b60405180910390fd5b81600160008673ffffffffffffffffffffffffffffffffffffffff1673ffffffffffffffffffffffffffffffffffffffff16815260200190815260200160002060008573ffffffffffffffffffffffffffffffffffffffff1673ffffffffffffffffffffffffffffffffffffffff168152602001908152602001600020819055508015611290578273ffffffffffffffffffffffffffffffffffffffff168473ffffffffffffffffffffffffffffffffffffffff167f8c5be1e5ebec7d5bd14f71427d1e84f3dd0314c0f7b2291e5b200ac8c7c3b9258460405161128791906116b8565b60405180910390a35b50505050565b600073ffffffffffffffffffffffffffffffffffffffff168373ffffffffffffffffffffffffffffffffffffffff16036112e85780600260008282546112dc9190611931565b925050819055506113bb565b60008060008573ffffffffffffffffffffffffffffffffffffffff1673ffffffffffffffffffffffffffffffffffffffff16815260200190815260200160002054905081811015611374578381836040517fe450d38c00000000000000000000000000000000000000000000000000000000815260040161136b93929190611c59565b60405180910390fd5b8181036000808673ffffffffffffffffffffffffffffffffffffffff1673ffffffffffffffffffffffffffffffffffffffff16815260200190815260200160002081905550505b600073ffffffffffffffffffffffffffffffffffffffff168273ffffffffffffffffffffffffffffffffffffffff16036114045780600260008282540392505081905550611451565b806000808473ffffffffffffffffffffffffffffffffffffffff1673ffffffffffffffffffffffffffffffffffffffff168152602001908152602001600020600082825401925050819055505b8173ffffffffffffffffffffffffffffffffffffffff168373ffffffffffffffffffffffffffffffffffffffff167fddf252ad1be2c89b69c2b068fc378daa952ba7f163c4a11628f55a4df523b3ef836040516114ae91906116b8565b60405180910390a3505050565b600081519050919050565b600082825260208201905092915050565b60005b838110156114f55780820151818401526020810190506114da565b60008484015250505050565b6000601f19601f8301169050919050565b600061151d826114bb565b61152781856114c6565b93506115378185602086016114d7565b61154081611501565b840191505092915050565b600060208201905081810360008301526115658184611512565b905092915050565b600080fd5b600073ffffffffffffffffffffffffffffffffffffffff82169050919050565b600061159d82611572565b9050919050565b6115ad81611592565b81146115b857600080fd5b50565b6000813590506115ca816115a4565b92915050565b6000819050919050565b6115e3816115d0565b81146115ee57600080fd5b50565b600081359050611600816115da565b92915050565b6000806040838503121561161d5761161c61156d565b5b600061162b858286016115bb565b925050602061163c858286016115f1565b9150509250929050565b60008115159050919050565b61165b81611646565b82525050565b60006020820190506116766000830184611652565b92915050565b6000602082840312156116925761169161156d565b5b60006116a0848285016115bb565b91505092915050565b6116b2816115d0565b82525050565b60006020820190506116cd60008301846116a9565b92915050565b6000806000606084860312156116ec576116eb61156d565b5b60006116fa868287016115bb565b935050602061170b868287016115bb565b925050604061171c868287016115f1565b9150509250925092565b600060ff82169050919050565b61173c81611726565b82525050565b60006020820190506117576000830184611733565b92915050565b61176681611592565b82525050565b6000602082019050611781600083018461175d565b92915050565b60006020828403121561179d5761179c61156d565b5b60006117ab848285016115f1565b91505092915050565b6117bd81611646565b81146117c857600080fd5b50565b6000813590506117da816117b4565b92915050565b600080604083850312156117f7576117f661156d565b5b6000611805858286016115bb565b9250506020611816858286016117cb565b9150509250929050565b600080604083850312156118375761183661156d565b5b6000611845858286016115bb565b9250506020611856858286016115bb565b9150509250929050565b7f4e487b7100000000000000000000000000000000000000000000000000000000600052602260045260246000fd5b600060028204905060018216806118a757607f821691505b6020821081036118ba576118b9611860565b5b50919050565b7f4e487b7100000000000000000000000000000000000000000000000000000000600052601160045260246000fd5b60006118fa826115d0565b9150611905836115d0565b9250828202611913816115d0565b9150828204841483151761192a576119296118c0565b5b5092915050565b600061193c826115d0565b9150611947836115d0565b925082820190508082111561195f5761195e6118c0565b5b92915050565b7f4461696c7920746f6b656e206c696d6974206578636565646564000000000000600082015250565b600061199b601a836114c6565b91506119a682611965565b602082019050919050565b600060208201905081810360008301526119ca8161198e565b9050919050565b7f556e617574686f72697a656420746f206d696e7420746f6b656e730000000000600082015250565b6000611a07601b836114c6565b9150611a12826119d1565b602082019050919050565b60006020820190508181036000830152611a36816119fa565b9050919050565b7f496e76616c69642070726f647563657200000000000000000000000000000000600082015250565b6000611a736010836114c6565b9150611a7e82611a3d565b602082019050919050565b60006020820190508181036000830152611aa281611a66565b9050919050565b7f4d696e7400000000000000000000000000000000000000000000000000000000600082015250565b6000611adf6004836114c6565b9150611aea82611aa9565b602082019050919050565b6000606082019050611b0a60008301856116a9565b8181036020830152611b1b81611ad2565b9050611b2a60408301846116a9565b9392505050565b6000611b3c826115d0565b9150611b47836115d0565b9250828203905081811115611b5f57611b5e6118c0565b5b92915050565b7f496e73756666696369656e742062616c616e6365000000000000000000000000600082015250565b6000611b9b6014836114c6565b9150611ba682611b65565b602082019050919050565b60006020820190508181036000830152611bca81611b8e565b9050919050565b7f4275726e00000000000000000000000000000000000000000000000000000000600082015250565b6000611c076004836114c6565b9150611c1282611bd1565b602082019050919050565b6000606082019050611c3260008301856116a9565b8181036020830152611c4381611bfa565b9050611c5260408301846116a9565b9392505050565b6000606082019050611c6e600083018661175d565b611c7b60208301856116a9565b611c8860408301846116a9565b94935050505056fea2646970667358221220c2f01b170fa7b694f74cea6170bd31dde297b736580ac1cdb22ebd7721a59d3d64736f6c63430008140033",
  "devdoc": {
    "errors": {
      "ERC20InsufficientAllowance(address,uint256,uint256)": [
        {
          "details": "Indicates a failure with the `spender`s `allowance`. Used in transfers.",
          "params": {
            "allowance": "Amount of tokens a `spender` is allowed to operate with.",
            "needed": "Minimum amount required to perform a transfer.",
            "spender": "Address that may be allowed to operate on tokens without being their owner."
          }
        }
      ],
      "ERC20InsufficientBalance(address,uint256,uint256)": [
        {
          "details": "Indicates an error related to the current `balance` of a `sender`. Used in transfers.",
          "params": {
            "balance": "Current balance for the interacting account.",
            "needed": "Minimum amount required to perform a transfer.",
            "sender": "Address whose tokens are being transferred."
          }
        }
      ],
      "ERC20InvalidApprover(address)": [
        {
          "details": "Indicates a failure with the `approver` of a token to be approved. Used in approvals.",
          "params": {
            "approver": "Address initiating an approval operation."
          }
        }
      ],
      "ERC20InvalidReceiver(address)": [
        {
          "details": "Indicates a failure with the token `receiver`. Used in transfers.",
          "params": {
            "receiver": "Address to which tokens are being transferred."
          }
        }
      ],
      "ERC20InvalidSender(address)": [
        {
          "details": "Indicates a failure with the token `sender`. Used in transfers.",
          "params": {
            "sender": "Address whose tokens are being transferred."
          }
        }
      ],
      "ERC20InvalidSpender(address)": [
        {
          "details": "Indicates a failure with the `spender` to be approved. Used in approvals.",
          "params": {
            "spender": "Address that may be allowed to operate on tokens without being their owner."
          }
        }
      ],
      "OwnableInvalidOwner(address)": [
        {
          "details": "The owner is not a valid owner account. (eg. `address(0)`)"
        }
      ],
      "OwnableUnauthorizedAccount(address)": [
        {
          "details": "The caller account is not authorized to perform an operation."
        }
      ]
    },
    "events": {
      "Approval(address,address,uint256)": {
        "details": "Emitted when the allowance of a `spender` for an `owner` is set by a call to {approve}. `value` is the new allowance."
      },
      "Transfer(address,address,uint256)": {
        "details": "Emitted when `value` tokens are moved from one account (`from`) to another (`to`). Note that `value` may be zero."
      }
    },
    "kind": "dev",
    "methods": {
      "allowance(address,address)": {
        "details": "See {IERC20-allowance}."
      },
      "approve(address,uint256)": {
        "details": "See {IERC20-approve}. NOTE: If `value` is the maximum `uint256`, the allowance is not updated on `transferFrom`. This is semantically equivalent to an infinite approval. Requirements: - `spender` cannot be the zero address."
      },
      "balanceOf(address)": {
        "details": "See {IERC20-balanceOf}."
      },
      "decimals()": {
        "details": "Returns the number of decimals used to get its user representation. For example, if `decimals` equals `2`, a balance of `505` tokens should be displayed to a user as `5.05` (`505 / 10 ** 2`). Tokens usually opt for a value of 18, imitating the relationship between Ether and Wei. This is the default value returned by this function, unless it's overridden. NOTE: This information is only used for _display_ purposes: it in no way affects any of the arithmetic of the contract, including {IERC20-balanceOf} and {IERC20-transfer}."
      },
      "name()": {
        "details": "Returns the name of the token."
      },
      "owner()": {
        "details": "Returns the address of the current owner."
      },
      "renounceOwnership()": {
        "details": "Leaves the contract without owner. It will not be possible to call `onlyOwner` functions. Can only be called by the current owner. NOTE: Renouncing ownership will leave the contract without an owner, thereby disabling any functionality that is only available to the owner."
      },
      "symbol()": {
        "details": "Returns the symbol of the token, usually a shorter version of the name."
      },
      "totalSupply()": {
        "details": "See {IERC20-totalSupply}."
      },
      "transfer(address,uint256)": {
        "details": "See {IERC20-transfer}. Requirements: - `to` cannot be the zero address. - the caller must have a balance of at least `value`."
      },
      "transferFrom(address,address,uint256)": {
        "details": "See {IERC20-transferFrom}. Emits an {Approval} event indicating the updated allowance. This is not required by the EIP. See the note at the beginning of {ERC20}. NOTE: Does not update the allowance if the current allowance is the maximum `uint256`. Requirements: - `from` and `to` cannot be the zero address. - `from` must have a balance of at least `value`. - the caller must have allowance for ``from``'s tokens of at least `value`."
      },
      "transferOwnership(address)": {
        "details": "Transfers ownership of the contract to a new account (`newOwner`). Can only be called by the current owner."
      }
    },
    "version": 1
  },
  "userdoc": {
    "kind": "user",
    "methods": {},
    "version": 1
  },
  "storageLayout": {
    "storage": [
      {
        "astId": 307,
        "contract": "contracts/KardashevNetwork.sol:KardashevNetwork",
        "label": "_balances",
        "offset": 0,
        "slot": "0",
        "type": "t_mapping(t_address,t_uint256)"
      },
      {
        "astId": 313,
        "contract": "contracts/KardashevNetwork.sol:KardashevNetwork",
        "label": "_allowances",
        "offset": 0,
        "slot": "1",
        "type": "t_mapping(t_address,t_mapping(t_address,t_uint256))"
      },
      {
        "astId": 315,
        "contract": "contracts/KardashevNetwork.sol:KardashevNetwork",
        "label": "_totalSupply",
        "offset": 0,
        "slot": "2",
        "type": "t_uint256"
      },
      {
        "astId": 317,
        "contract": "contracts/KardashevNetwork.sol:KardashevNetwork",
        "label": "_name",
        "offset": 0,
        "slot": "3",
        "type": "t_string_storage"
      },
      {
        "astId": 319,
        "contract": "contracts/KardashevNetwork.sol:KardashevNetwork",
        "label": "_symbol",
        "offset": 0,
        "slot": "4",
        "type": "t_string_storage"
      },
      {
        "astId": 8,
        "contract": "contracts/KardashevNetwork.sol:KardashevNetwork",
        "label": "_owner",
        "offset": 0,
        "slot": "5",
        "type": "t_address"
      },
      {
        "astId": 955,
        "contract": "contracts/KardashevNetwork.sol:KardashevNetwork",
        "label": "minters",
        "offset": 0,
        "slot": "6",
        "type": "t_mapping(t_address,t_bool)"
      },
      {
        "astId": 959,
        "contract": "contracts/KardashevNetwork.sol:KardashevNetwork",
        "label": "userMintTimestamps",
        "offset": 0,
        "slot": "7",
        "type": "t_mapping(t_address,t_uint256)"
      },
      {
        "astId": 963,
        "contract": "contracts/KardashevNetwork.sol:KardashevNetwork",
        "label": "userMintedTokensToday",
        "offset": 0,
        "slot": "8",
        "type": "t_mapping(t_address,t_uint256)"
      },
      {
        "astId": 976,
        "contract": "contracts/KardashevNetwork.sol:KardashevNetwork",
        "label": "_totalSupply",
        "offset": 0,
        "slot": "9",
        "type": "t_uint256"
      }
    ],
    "types": {
      "t_address": {
        "encoding": "inplace",
        "label": "address",
        "numberOfBytes": "20"
      },
      "t_bool": {
        "encoding": "inplace",
        "label": "bool",
        "numberOfBytes": "1"
      },
      "t_mapping(t_address,t_bool)": {
        "encoding": "mapping",
        "key": "t_address",
        "label": "mapping(address => bool)",
        "numberOfBytes": "32",
        "value": "t_bool"
      },
      "t_mapping(t_address,t_mapping(t_address,t_uint256))": {
        "encoding": "mapping",
        "key": "t_address",
        "label": "mapping(address => mapping(address => uint256))",
        "numberOfBytes": "32",
        "value": "t_mapping(t_address,t_uint256)"
      },
      "t_mapping(t_address,t_uint256)": {
        "encoding": "mapping",
        "key": "t_address",
        "label": "mapping(address => uint256)",
        "numberOfBytes": "32",
        "value": "t_uint256"
      },
      "t_string_storage": {
        "encoding": "bytes",
        "label": "string",
        "numberOfBytes": "32"
      },
      "t_uint256": {
        "encoding": "inplace",
        "label": "uint256",
        "numberOfBytes": "32"
      }
    }
  }
}